:100000000C943A000C944F000C944F000C944F0049
:100010000C944F000C944F000C944F000C944F0024
:100020000C944F000C944F000C944F000C944F0014
:100030000C944F000C944F000C944F000C944F0004
:100040000C944F000C944F000C944F000C944F00F4
:100050000C944F000C944F000C944F000C944F00E4
:100060000C944F000C944F000C944F000C944F00D4
:100070000C944F0011241FBECFEFD2E0DEBFCDBFE6
:1000800011E0A0E0B1E0E8E2F6E002C005900D92D8
:10009000AA30B107D9F70E9451000C9412030C94B6
:1000A0000000CF93DF93CDB7DEB7E6970FB6F89495
:1000B000DEBF0FBECDBF25E048E250E067E270E052
:1000C000CE0101960E94000124E048E250E067E280
:1000D00070E0CE0140960E9400010F2EF7E0CF2E77
:1000E000F02D6894EE24E2F805E026E045E250E0C9
:1000F00064E270E0CE014F960E9425010F2EF3E0DE
:10010000CF2EF02D6894EE24E1F801E020E04BE2E0
:1001100050E06AE270E0CE018B960E946302CE014D
:1001200001960E94D200CE014F960E94F401CE01AA
:100130008B960E94AC022FEF84E39CE0215080401C
:100140009040E1F700C00000CE014F960E942902C6
:10015000CE0101960E94DF00F12C00E010E06F2D2F
:10016000CE018B960E94DF0227E02F1510F0F3944A
:1001700001C0F12CB801CE014F960E946E010F3FD5
:100180008FEF180719F00F5F1F4F02C000E010E05B
:100190009FEF24E38CE0915020408040E1F700C0C5
:1001A0000000DDCFFC018085811108C09585A18507
:1001B000B2858C91892B8C9381E080870895FC0116
:1001C0008085882339F09685A185B2858C91892315
:1001D0008C9310860895DC0118962C911897222391
:1001E00039F0ED91FC910280F381E02D099508959D
:1001F000DC01ED91FC910190F081E02D09950895CD
:10020000FC0184E091E091838083108652874187CE
:10021000748763871586358581E090E002C0880F7A
:10022000991F2A95E2F7832B858785858095868798
:100230009685DA018C9189238C9395850384F485C6
:10024000E02D8081892B80830895CF92EF920F93C8
:10025000CF93DF9300D000D0CDB7DEB7FC01298368
:100260000A83EB82CC82518340837383628329812A
:1002700081E090E0AC0102C0440F551F2A95E2F7DF
:1002800044832A81AC0102C0440F551F2A95E2F72E
:1002900045832B81AC0102C0440F551F2A95E2F71C
:1002A00046832C8102C0880F991F2A95E2F7878325
:1002B00084818095808785818095818786818095DE
:1002C00082878781809583870F900F900F900F9082
:1002D000DF91CF910F91EF90CF900895FC0180E0D6
:1002E00090E09B01082E02C0369527950A94E2F70C
:1002F00020FF07C03481A081B1812C91232B2C9346
:1003000006C03085A081B1812C9123232C933581A7
:10031000A081B1812C91232B2C9300C000C031858A
:10032000A081B1812C9123232C9300C000C00196A1
:1003300080319105B1F69085A081B1818C9189239E
:100340008C939681A081B1818C91892B8C9300C074
:1003500000C09285A081B1818C9189238C9300C0CB
:1003600000C093850190F081E02D808189238083F6
:1003700000C000C00895FC0197810190F081E02D3C
:100380008081892B808300C000C00895FC01908586
:10039000A081B1818C9189238C9390E12581A081EA
:1003A000B1818C91822B8C9300C000C02185A081EB
:1003B000B1818C9182238C9300C000C0915071F761
:1003C0009681A081B1818C91892B8C9300C000C053
:1003D0009285A081B1818C9189238C9300C000C04B
:1003E000CF010E94BB010895FC019481A281B381D9
:1003F0008C91892B8C939581A281B3818C91892BCF
:100400008C939681A281B3818C91892B8C93978157
:10041000A281B3818C91892B8C939085A081B1812D
:100420008C9189238C939185A081B1818C918923B2
:100430008C939285A081B1818C9189238C93978133
:10044000A081B1818C91892B8C93CF010E94C60130
:100450000895FC019481A081B1818C91892B8C93AA
:1004600090E12581A081B1818C91822B8C9300C079
:1004700000C02185A081B1818C9182238C9300C022
:1004800000C0915071F79085A081B1818C91892332
:100490008C939681A081B1818C91892B8C9300C023
:1004A00000C09285A081B1818C9189238C9300C07A
:1004B00000C093850190F081E02D808189238083A5
:1004C00000C000C00895CF92EF920F93CF93DF93B7
:1004D00000D000D0CDB7DEB7FC0129830A83EB82C0
:1004E000CC825183408373836283298181E090E0D1
:1004F000AC0102C0440F551F2A95E2F744832A81BC
:10050000AC0102C0440F551F2A95E2F745832B81A9
:10051000AC0102C0440F551F2A95E2F746832C8197
:1005200002C0880F991F2A95E2F7878384818095FE
:100530008087858180958187868180958287878164
:10054000809583870F900F900F900F90DF91CF9140
:100550000F91EF90CF900895FC019481A281B38117
:100560008C91892B8C939581A281B3818C91892B5D
:100570008C939681A281B3818C91892B8C939781E6
:10058000A281B3818C91892B8C939085A081B181BC
:100590008C9189238C939185A081B1818C91892341
:1005A0008C939285A081B1818C9189238C939781C2
:1005B0000190F081E02D8081892B80830895FC01DA
:1005C0009085A081B1818C9189238C939185A081A4
:1005D000B1818C9189238C939285A081B1818C917A
:1005E00089238C9362FF06C09681A081B1818C9192
:1005F000892B8C9361FF06C09581A081B1818C917C
:10060000892B8C9360FF06C09481A081B1818C916D
:10061000892B8C9393850190F081E02D8081892333
:0806200080830895F894FFCFD8
:0A06280000000000D200DF00EB002C
:02000004008278
:03000000FFDBF42F
:02000004008377
:01000000FF00
:00000001FF
