:100000000C944A000C945F000C945F000C945F0009
:100010000C945F000C945F000C945F000C945F00E4
:100020000C945F000C945F000C945F000C945F00D4
:100030000C945F000C945F000C945F000C945F00C4
:100040000C945F000C945F000C945F000C945F00B4
:100050000C945F000C945F000C945F000C945F00A4
:100060000C945F000C945F000C945F000C945F0094
:100070000C945F0061028A02B302DC0205032E03C6
:1000800057038003A903D203FB0324044D04760421
:100090009F04C80411241FBECFEFD2E0DEBFCDBF46
:1000A00011E0A0E0B1E0E0ECFCE002C005900D92B0
:1000B000AA30B107D9F70E9461000C945E060C9437
:1000C0000000CF93DF93CDB7DEB7C055D1090FB68F
:1000D000F894DEBF0FBECDBF0F2EF3E0AF2EF02D94
:1000E0006894CC24C2F80F2EF5E0EF2EF02D06E038
:1000F00027E04BE250E06AE270E0CE0101960E94F8
:10010000FB016894AA24A1F827E04BE250E06AE2E0
:1001100070E0CE0140960E94FB0127E045E250E0EE
:1001200064E270E0CE014F960E945A0526E048E254
:1001300050E067E270E0CE018B960E94D60127E086
:1001400048E250E067E270E0CE01CA960E94D60114
:10015000CE01CA960E94A801CE0101960E943605E2
:10016000CE0140960E943605CE014F960E9423068E
:10017000CE01CA960E94B501CE018B960E94A801BD
:100180002FEF84E39CE0215080409040E1F700C0D5
:100190000000CE018B960E94B5012A961FAE2A97C9
:1001A0002B961FAE2B978BEB2C968FAF2C976FEF68
:1001B0007FEFCE014F960E94A3052A966FAD2A9736
:1001C000CE0101960E9454022B966FAD2B97CE0163
:1001D00040960E9454022D961FAE2D972F961FAE6B
:1001E0001EAE2F9760961FAE609761961FAE619707
:1001F0002A961FAE2A972A968FAD2A978A30C0F783
:100200002B961FAE2B972B968FAD2B978A3008F02D
:1002100091C02A968FAD2A978295807F2C968FAFBA
:100220002C972C969FAD2C972B968FAD2B97892BC7
:100230002C968FAF2C9727E030E02C968FAD2C9723
:1002400090E0022E02C0959587950A94E2F72D96CC
:100250008FAF2D972D968FAD2D9781702D968FAFE7
:100260002D972F968EAD9FAD2F97880F991F880FD2
:10027000991F2F969FAF8EAF2F972D968FAD2D97ED
:10028000882349F02F968EAD9FAD2F9783602F96D0
:100290009FAF8EAF2F972150310978F62F966EAD14
:1002A0007FAD2F97CE014F960E94A3052C968FAD60
:1002B0002C978F7060968FAF60972C968FAD2C9790
:1002C00090E09595879595958795959587959595C2
:1002D000879561968FAF61972C966FAD2C9770E0E4
:1002E00075956795759567957595679575956795F6
:1002F000CE0101960E9454022C966FAD2C976F7020
:10030000CE0140960E9454029FEF22E587E0915073
:1003100020408040E1F700C000002B968FAD2B9766
:100320008F5F2B968FAF2B972B968FAD2B978A30A5
:1003300008F46FCF2A968FAD2A978F5F2A968FAFDA
:100340002A972A968FAD2A978A3008F459CF50CF32
:10035000FC018085811108C09585A185B2858C91AD
:10036000892B8C9381E080870895FC018085882308
:1003700039F09685A185B2858C9189238C9310865E
:100380000895DC0118962C911897222339F0ED91ED
:10039000FC910280F381E02D09950895DC01ED9137
:1003A000FC910190F081E02D09950895FC0184E015
:1003B00091E0918380831086528741877487638799
:1003C0001586358581E090E002C0880F991F2A9537
:1003D000E2F7832B85878585809586879685DA0168
:1003E0008C9189238C9395850384F485E02D8081FD
:1003F000892380830895AF92CF92EF920F93CF938A
:10040000DF9300D000D01F92CDB7DEB7FC01298367
:100410000A83EB82CC82AD825283418374836383EF
:10042000298181E090E0AC0102C0440F551F2A955C
:10043000E2F747832A81AC0102C0440F551F2A9579
:10044000E2F741872B81AC0102C0440F551F2A956A
:10045000E2F743872C81AC0102C0440F551F2A9557
:10046000E2F745872D8102C0880F991F2A95E2F790
:100470008583878180958087818580958287838524
:1004800080958487858580958687858180958683FC
:100490000F900F900F900F900F90DF91CF910F91D1
:1004A000EF90CF90AF900895DC016C93462F50E011
:1004B0004031510508F095C2FA01E65CFF4F0C94FB
:1004C000580618969C9118971196ED91FC911297E9
:1004D0008081892380831A969C911A971196ED91B9
:1004E000FC9112978081892380831C969C911C9794
:1004F0001196ED91FC9112978081892380831E963D
:100500009C911E971196ED91FC9112978081892301
:10051000808391C217969C9117971196ED91FC914B
:1005200012978081892B80831A969C911A97119635
:10053000ED91FC9112978081892380831C969C9178
:100540001C971196ED91FC911297808189238083ED
:100550001E969C911E971196ED91FC9112978081A9
:100560008923808368C218969C9118971196ED9103
:10057000FC91129780818923808319969C91199709
:100580001196ED91FC9112978081892B80831C96A6
:100590009C911C971196ED91FC9112978081892373
:1005A00080831E969C911E971196ED91FC91129757
:1005B0008081892380833FC217969C91179711965B
:1005C000ED91FC9112978081892B808319969C91E3
:1005D00019971196ED91FC9112978081892B808358
:1005E0001C969C911C971196ED91FC91129780811D
:1005F000892380831E969C911E971196ED91FC9104
:10060000129780818923808316C218969C9118972F
:100610001196ED91FC9112978081892380831A961F
:100620009C911A971196ED91FC91129780818923E4
:1006300080831B969C911B971196ED91FC911297CC
:100640008081892B80831E969C911E971196ED9137
:10065000FC911297808189238083EDC117969C912C
:1006600017971196ED91FC9112978081892B8083C9
:100670001A969C911A971196ED91FC911297808190
:10068000892380831B969C911B971196ED91FC9179
:1006900012978081892B80831E969C911E971196BC
:1006A000ED91FC911297808189238083C4C11896B3
:1006B0009C9118971196ED91FC9112978081892356
:1006C000808319969C9119971196ED91FC91129740
:1006D0008081892B80831B969C911B971196ED91AD
:1006E000FC9112978081892B80831E969C911E9786
:1006F0001196ED91FC9112978081892380839BC193
:1007000017969C9117971196ED91FC911297808105
:10071000892B808319969C9119971196ED91FC91E4
:1007200012978081892B80831B969C911B97119631
:10073000ED91FC9112978081892B80831E969C916C
:100740001E971196ED91FC911297808189238083E9
:1007500072C118969C9118971196ED91FC91129781
:100760008081892380831A969C911A971196ED9126
:10077000FC9112978081892380831C969C911C9701
:100780001196ED91FC9112978081892380831D96AB
:100790009C911D971196ED91FC9112978081892B68
:1007A000808349C117969C9117971196ED91FC9102
:1007B00012978081892B80831A969C911A971196A3
:1007C000ED91FC9112978081892380831C969C91E6
:1007D0001C971196ED91FC9112978081892380835B
:1007E0001D969C911D971196ED91FC911297808119
:1007F000892B808320C118969C9118971196ED91B2
:10080000FC91129780818923808319969C91199776
:100810001196ED91FC9112978081892B80831C9613
:100820009C911C971196ED91FC91129780818923E0
:1008300080831D969C911D971196ED91FC911297C6
:100840008081892B8083F7C017969C91179711960A
:10085000ED91FC9112978081892B808319969C9150
:1008600019971196ED91FC9112978081892B8083C5
:100870001C969C911C971196ED91FC91129780818A
:10088000892380831D969C911D971196ED91FC9173
:1008900012978081892B8083CEC018969C911897DF
:1008A0001196ED91FC9112978081892380831A968D
:1008B0009C911A971196ED91FC9112978081892352
:1008C00080831B969C911B971196ED91FC9112973A
:1008D0008081892B80831D969C911D971196ED91A7
:1008E000FC9112978081892B8083A5C017969C91DB
:1008F00017971196ED91FC9112978081892B808337
:100900001A969C911A971196ED91FC9112978081FD
:10091000892380831B969C911B971196ED91FC91E6
:1009200012978081892B80831D969C911D9711962B
:10093000ED91FC9112978081892B80837CC0189661
:100940009C9118971196ED91FC91129780818923C3
:10095000808319969C9119971196ED91FC911297AD
:100960008081892B80831B969C911B971196ED911A
:10097000FC9112978081892B80831D969C911D97F5
:100980001196ED91FC9112978081892B808353C041
:1009900017969C9117971196ED91FC911297808173
:1009A000892B808319969C9119971196ED91FC9152
:1009B00012978081892B80831B969C911B9711969F
:1009C000ED91FC9112978081892B80831D969C91DB
:1009D0001D971196ED91FC9112978081892B808350
:1009E0002AC017969C9117971196ED91FC9112973A
:1009F0008081892B808319969C9119971196ED918E
:100A0000FC9112978081892B80831B969C911B9768
:100A10001196ED91FC9112978081892B80831D9610
:100A20009C911D971196ED91FC9112978081892BD5
:100A3000808380E18C9315968C9115978F3FA9F058
:100A400015969C9115971196ED91FC9112978081C6
:100A5000892B8083000016969C9116971196ED9134
:100A6000FC9112978081892380830895FC019581F0
:100A7000A381B4818C91892B8C939781A381B481BC
:100A80008C91892B8C939185A381B4818C91892B36
:100A90008C939385A381B4818C91892B8C939585BC
:100AA000A381B4818C91892B8C936FE0CF010E943C
:100AB00054020895CF92EF920F93CF93DF9300D01B
:100AC00000D0CDB7DEB7FC0129830A83EB82CC824C
:100AD0005183408373836283298181E090E0AC017C
:100AE00002C0440F551F2A95E2F744832A81AC01C6
:100AF00002C0440F551F2A95E2F745832B81AC01B4
:100B000002C0440F551F2A95E2F746832C8102C08C
:100B1000880F991F2A95E2F78783848180958087C3
:100B20008581809581878681809582878781809560
:100B300083870F900F900F900F90DF91CF910F91BF
:100B4000EF90CF900895FC0180E090E09B01082E8B
:100B500002C0369527950A94E2F720FF07C034813A
:100B6000A081B1812C91232B2C9306C03085A081CC
:100B7000B1812C9123232C933581A081B1812C91BB
:100B8000232B2C9300C000C03185A081B1812C9112
:100B900023232C9300C000C0019680319105B1F64B
:100BA0009681A081B1818C91892B8C9300C000C06B
:100BB0009285A081B1818C9189238C9300C000C063
:100BC00093850190F081E02D80818923808300C08E
:100BD00000C00895FC0197810190F081E02D808193
:100BE000892B808300C000C00895FC019085A081FE
:100BF000B1818C9189238C9390E12581A081B18171
:100C00008C91822B8C9300C000C02185A081B18182
:100C10008C9182238C9300C000C0915071F7968113
:100C2000A081B1818C91892B8C9300C000C09285EA
:100C3000A081B1818C9189238C9300C000C0CF0129
:100C40000E94EA050895FC019481A281B3818C91F0
:100C5000892B8C939581A281B3818C91892B8C9364
:100C60009681A281B3818C91892B8C939781A281EB
:100C7000B3818C91892B8C939085A081B1818C91CB
:100C800089238C939185A081B1818C9189238C9348
:100C90009285A081B1818C9189238C939781A081C9
:100CA000B1818C91892B8C93CF010E94F505089519
:100CB000EE0FFF1F0590F491E02D0994F894FFCFFB
:0A0CC00000000000A801B501C10109
:02000004008278
:03000000FFDBF42F
:02000004008377
:01000000FF00
:00000001FF
