:100000000C943A000C944C000C944C000C944C0052
:100010000C944C000C944C000C944C000C944C0030
:100020000C944C000C944C000C944C000C944C0020
:100030000C944C000C944C000C944C000C944C0010
:100040000C944C000C944C000C944C000C944E00FE
:100050000C944C000C944C000C944C000C944C00F0
:100060000C944C000C944C000C944C000C944C00E0
:100070000C944C0011241FBECFEFD2E0DEBFCDBFE9
:1000800021E0A0E0B1E001C01D92A430B207E1F789
:100090000E9434010C94D6010C9400001F920F9220
:1000A0000FB60F9211248F939F93AF93BF938091BC
:1000B000000190910101A0910201B091030101960C
:1000C000A11DB11D8093000190930101A093020135
:1000D000B0930301BF91AF919F918F910F900FBE8D
:1000E0000F901F90189582E084BD94E095BD9CE729
:1000F00097BD80936E002AE02A95F1F700C08FE744
:1001000098E321E0815090402040E1F700C00000DA
:1001100047988FEF91EE24E0815090402040E1F726
:1001200000C00000479A8FE798E321E0815090409B
:100130002040E1F700C00000089588ED8AB988E00A
:100140008BB980EC87B980E888B980EF84B980EEFC
:1001500085B92AE02A95F1F700C08FE798E321E0FE
:10016000815090402040E1F700C0000047988FEF99
:1001700091EE24E0815090402040E1F700C0000063
:10018000479A8FE798E321E0815090402040E1F7C3
:1001900000C0000008955F9A88E05B989AE09A9505
:1001A000F1F700C05B9A9AE09A95F1F700C0815090
:1001B000A1F75F988AE08A95F1F700C0089515B815
:1001C00080FD2C9A81FD2D9A82FF03C095B190632A
:1001D00095B983FD2E9A8AE08A95F1F700C00895BB
:1001E000379A8AE08A95F1F700C037988AE08A95B5
:1001F000F1F700C00895369A82E08A95F1F700C0C1
:10020000369882E08A95F1F700C08AE18A95F1F785
:1002100000C0369A82E08A95F1F700C0369882E0F5
:100220008A95F1F700C00895CF93DF935C9A8AE036
:100230008A95F1F700C05C98C8E0D0E05B988AE04E
:100240008A95F1F700C0DD0F4D9B03C0D1600E947D
:10025000FB005B9A8AE08A95F1F700C0C15071F704
:100260008D2FDF91CF910895CF93DF9300D000D0F1
:10027000CDB7DEB70E949D000E94CB000E947300A4
:1002800019821A821B821C822AE02A95F1F700C08B
:100290008FE798E3E1E081509040E040E1F700C053
:1002A00000004798FFEF21EE84E0F15020408040AD
:1002B000E1F700C00000479A9FE7E8E3F1E09150C2
:1002C000E040F040E1F700C0000078944E0125E0E6
:1002D000820E911C5E0182E0A80EB11C809100018B
:1002E00090910101A0910201B09103018A3F910513
:1002F000A105B10508F453C010920001109201014C
:1003000010920201109203010E94F000FE0131964A
:100310006F010E941401F60181936F0100E010E06B
:10032000E82EF12CC701002E02C0959587950A94FE
:10033000E2F780FF08C00E94F000F2E0FA95F1F7C2
:1003400000C00E94F0002AE12A95F1F700C00F5F7B
:100350001F4F0830110531F75E9A8AE08A95F1F750
:1003600000C05E989AE09A95F1F700C08C149D0445
:1003700081F60E94CB008E010A5F1F4FF801829127
:100380008F010E94DF00FFEF21EE84E0F15020405A
:100390008040E1F700C000000A151B0579F7EFE186
:1003A000FEE43197F1F700C0000098CFF894FFCF3A
:02000004008278
:03000000FFDBF42F
:02000004008377
:01000000FF00
:00000001FF
