:100000000C9440000C94E8000C94E8000C94E80078
:100010000C94E8000C94E8000C94E8000C94E800C0
:100020000C94E8000C94E8000C94E8000C94E800B0
:100030000C94E8000C94E8000C94E8000C94E800A0
:100040000C94E8000C94E8000C94E8000C94BA00BE
:100050000C94E8000C94E8000C94E8000C94E80080
:100060000C94E8000C94E8000C94E8000C94E80070
:100070000C94E800010001100001DE011001148061
:1000800011241FBECFEFD2E0DEBFCDBFE4E7F0E02A
:1000900040E017C0B591A59135912591059107FDD7
:1000A0000CC095918591EF01F92FE82F05900D92E5
:1000B000A217B307D9F7FE0104C01D92A217B30718
:1000C000E1F7E038F40731F70E946A000C94DD0094
:0400D000F894FFCFD2
:1000D400CF93DF93CDB7DEB760970FB6F894DEBF4A
:1000E4000FBECDBF82E084BD91E095BD97EC97BD76
:1000F40080936E0080EF84B980ED85B980E887B97C
:1001040088B9789480E1E0E0F1E0DE011196019095
:100114000D928A95E1F7000020E030E080E0409104
:100124001001509111016091120170911301483E28
:1001340053406105710554F02F5F3F4F1092100139
:1001440010921101109212011092130128323105FC
:1001540058F0E1E0F0E0EC0FFD1FE80FF11D908195
:1001640095B98F5F20E030E08031C9F680E0D7CFC9
:100174001F921FB61F9211248F939F93AF93BF9327
:100184008091100190911101A0911201B09113017D
:100194000196A11DB11D8093100190931101A093AC
:1001A4001201B0931301BF91AF919F918F911F9052
:0601B4001FBE1F9018950C
:1001BA00EC010E94ED000E94EC00CE010E94EE00CC
:0601CA00CE010E94EA00D4
:0401D0000C9400008B
:0401D4000E9468001D
:0201D800089588
:0201DA00089586
:0201DC00089584
:1001DE0000102030405060708090A0B0C0D0E0F091
:02000004008278
:03000000FFDBF42F
:02000004008377
:01000000FF00
:00000001FF
