:100000000C943A000C944F000C944F000C944F0049
:100010000C944F000C944F000C944F000C944F0024
:100020000C944F000C944F000C944F000C944F0014
:100030000C944F000C944F000C944F000C944F0004
:100040000C944F000C944F000C944F000C944F00F4
:100050000C944F000C944F000C944F000C944F00E4
:100060000C944F000C944F000C944F000C944F00D4
:100070000C944F0011241FBECFEFD2E0DEBFCDBFE6
:1000800011E0A0E0B1E0E4EAF2E002C005900D92D8
:10009000AA30B107D9F70E9451000C9450010C947A
:1000A0000000CF93DF93CDB7DEB7A8970FB6F894D3
:1000B000DEBF0FBECDBF24E048E250E067E270E053
:1000C000CE0101960E94EA0025E048E250E067E296
:1000D00070E0CE0140960E94EA0007E028E230E09E
:1000E00046E250E067E270E0CE014F960E941D01AB
:1000F00000002FE38DE093E0215080409040E1F735
:1001000000C00000CE014F960E944701CE014F96DD
:100110000E944701882399F0CE0101960E94BC00FD
:1001200000002FE38DE093E0215080409040E1F704
:1001300000C00000CE0101960E94C90012C0CE018D
:1001400040960E94BC0000002FE38DE093E0215018
:1001500080409040E1F700C00000CE0140960E9430
:10016000C90000C02FE78AE196E02150804090400E
:10017000E1F700C00000C6CFFC018085811108C0F6
:100180009585A185B2858C91892B8C9381E08087A0
:100190000895FC018085882339F09685A185B28574
:1001A0008C9189238C9310860895DC0118962C91EC
:1001B0001897222339F0ED91FC910280F381E02D14
:1001C00009950895DC01ED91FC910190F081E02DFD
:1001D00009950895FC0184E091E091838083108665
:1001E00052874187748763871586358581E090E063
:1001F00002C0880F991F2A95E2F7832B8587858592
:10020000809586879685DA018C9189238C939585D4
:100210000384F485E02D8081892B80830895FC017F
:10022000A681B7818C91818391818085892319F082
:1002300081E080830895108208950F93CF93DF9318
:100240001F92CDB7DEB7FC010983758364835783A2
:1002500046833383228310863981208581E090E0B4
:1002600002C0880F991F3A95E2F7822B808780851C
:10027000809581879185DB018C9189238C93CF01B7
:100280000E940F010F90DF91CF910F910895CF93AE
:10029000DF93EC010E940F018881DF91CF910895D7
:0402A000F894FFCF00
:0A02A40000000000BC00C900D500F6
:02000004008278
:03000000FF5BF4AF
:02000004008377
:01000000FF00
:00000001FF
