:100000000C944A000C945F000C945F000C945F0009
:100010000C945F000C945F000C945F000C945F00E4
:100020000C945F000C945F000C945F000C945F00D4
:100030000C945F000C945F000C945F000C945F00C4
:100040000C945F000C945F000C945F000C945F00B4
:100050000C945F000C945F000C945F000C945F00A4
:100060000C945F000C945F000C945F000C945F0094
:100070000C945F0023034C0375039E03C703F00336
:10008000190442046B049404BD04E6040F0538050A
:1000900061058A0511241FBECFEFD2E0DEBFCDBFC0
:1000A00011E0A0E0B1E0E8E0FCE002C005900D92B4
:1000B000AA30B107D9F70E9461000C9402060C9493
:1000C0000000CF93DF93CDB7DEB7C054D1090FB690
:1000D000F894DEBF0FBECDBF25E04AE250E06BE2F0
:1000E00070E0CE0101960E94430226E04AE250E011
:1000F0006BE270E0CE0140960E9443026894CC24EB
:10010000C1F8EE24E39400E029E230E04BE250E055
:100110006AE270E0CE014F960E94810104E023E084
:100120004BE250E06AE270E0CE018B960E946802DA
:100130000F2EF7E0CF2EF02D0F2EF6E0EF2EF02D44
:1001400005E024E048E250E067E270E0CE01C496AA
:100150000E94CD022FEF89E698E121508040904027
:10016000E1F700C00000CE0101960E941502CE0109
:1001700040960E9415022FEF83ED90E321508040BE
:100180009040E1F700C00000CE0101960E942202DB
:10019000CE0140960E9422022FEF83ED90E3215082
:1001A00080409040E1F700C00000CE014F960E94D1
:1001B000C301CE018B960E949602CE01C4960E9486
:1001C000DE05412CCE0140965C010F976C016A2C34
:1001D0007B2C882E9D2C6894552452F8CE014F9686
:1001E0000E94E601E82ECE018B960E94CA02682F7B
:1001F000CE01C4960E94160300E010E0F12C970196
:10020000002E02C0359527950A94E2F720FF1BC007
:10021000882D992D0E9415029FEF20E782E09150D2
:1002200020408040E1F700C00000882D992D0E94F9
:1002300022029FEF20E782E0915020408040E1F7CA
:1002400000C000001AC0862D972D0E9415029FEF56
:1002500020E782E0915020408040E1F700C000009C
:10026000862D972D0E9422029FEF20E782E0915079
:1002700020408040E1F700C000000F5F1F4F0830B2
:10028000110509F0BCCFCE018B960E94B3029FEFFF
:1002900021EE84E0915020408040E1F700C0000052
:1002A0005A9451109BCFC5010E941502C6010E94AD
:1002B0001502CE018B960E948502642DCE01C49654
:1002C0000E9416039EE0941510F0439401C0412C47
:1002D0002FEF84E39CE0215080409040E1F700C084
:1002E0000000C5010E942202C6010E9422022FEFD7
:1002F00081EE94E0215080409040E1F700C0000082
:100300006ACFCF92EF920F93FC01518340833383E6
:1003100022837583648381E090E09C0102C0220FF8
:10032000331F0A95E2F726839C0102C0220F331F78
:10033000EA94E2F7208702C0880F991FCA94E2F777
:100340008287868180958783808580958187828555
:10035000809583870F91EF90CF900895FC0198E0EE
:100360002781A081B1818C9182238C9300C000C031
:100370002681A081B1818C91822B8C9300C000C01A
:10038000915071F70895FC019681A481B5818C91FB
:10039000892B8C939085A481B5818C91892B8C932A
:1003A0009385A481B5818C9189238C939681A081BA
:1003B000B1818C91892B8C939185A081B1818C9195
:1003C00089238C93CF010E94AE010895FC01908592
:1003D000A081B1818C91892B8C9300C000C0918544
:1003E000A081B1818C9189238C9300C000C028E04A
:1003F00080E03781A081B1819C9193239C93880FE9
:10040000A281B3813C919285932311F0816002C057
:10041000000000003681A081B1819C91932B9C93B8
:1004200000C000C0215029F70895FC01808581118A
:1004300008C09585A185B2858C91892B8C9381E02C
:1004400080870895FC018085882339F09685A185F1
:10045000B2858C9189238C9310860895DC011896BF
:100460002C911897222339F0ED91FC910280F381B1
:10047000E02D09950895DC01ED91FC910190F0814A
:10048000E02D09950895FC0184E091E0918380833B
:10049000108672876187548743871586358581E08A
:1004A00090E002C0880F991F2A95E2F7832B858779
:1004B0008585809586879685DB018C9189238C9331
:1004C00095850384F485E02D8081892380830895B8
:1004D0000F93FC01528341837483638381E090E036
:1004E000AC0102C0440F551F2A95E2F7458302C0B4
:1004F000880F991F0A95E2F7878385818095868307
:100500008781809580870F910895FC019781A18153
:10051000B2818C91892B8C9300009085A181B2814E
:100520008C9189238C93000010820895FC019581A1
:10053000A381B4818C91892B8C939781A381B48101
:100540008C91892B8C939681A181B2818C91892386
:100550008C939085A181B2818C9189238C93CF015A
:100560000E9485020895FC019581A181B2818C9140
:10057000892B8C9300009681A181B2818C91892373
:100580008C93000080818F5F883011F08083089504
:1005900010820895FC0180810895CF92EF920F930D
:1005A000CF93DF9300D000D0CDB7DEB7FC01298315
:1005B0000A83EB82CC8252834183748363832981D3
:1005C00081E090E0AC0102C0440F551F2A95E2F78C
:1005D00045832A81AC0102C0440F551F2A95E2F7DA
:1005E00047832B81AC0102C0440F551F2A95E2F7C7
:1005F00041872C8102C0880F991F2A95E2F78387D3
:100600008581809586838781809580878185809587
:1006100082878385809584870F900F900F900F902D
:10062000DF91CF910F91EF90CF900895DC016C9303
:10063000462F50E04031510508F095C2FA01E65CC2
:10064000FF4F0C94FC0516969C9116971196ED9110
:10065000FC91129780818923808318969C9118972A
:100660001196ED91FC9112978081892380831A96CF
:100670009C911A971196ED91FC9112978081892394
:1006800080831C969C911C971196ED91FC9112977A
:10069000808189238083089515969C9115971196E2
:1006A000ED91FC9112978081892B808318969C9103
:1006B00018971196ED91FC91129780818923808380
:1006C0001A969C911A971196ED91FC911297808140
:1006D000892380831C969C911C971196ED91FC9127
:1006E0001297808189238083089516969C9116978E
:1006F0001196ED91FC911297808189238083179642
:100700009C9117971196ED91FC9112978081892BFE
:1007100080831A969C911A971196ED91FC911297ED
:100720008081892380831C969C911C971196ED9162
:10073000FC911297808189238083089515969C915E
:1007400015971196ED91FC9112978081892B8083EA
:1007500017969C9117971196ED91FC9112978081B5
:10076000892B80831A969C911A971196ED91FC9192
:1007700012978081892380831C969C911C971196E7
:10078000ED91FC91129780818923808308951696BC
:100790009C9116971196ED91FC9112978081892377
:1007A000808318969C9118971196ED91FC91129761
:1007B00080818923808319969C9119971196ED91D8
:1007C000FC9112978081892B80831C969C911C97A9
:1007D0001196ED91FC911297808189238083089571
:1007E00015969C9115971196ED91FC911297808129
:1007F000892B808318969C9118971196ED91FC9106
:10080000129780818923808319969C91199711965C
:10081000ED91FC9112978081892B80831C969C918D
:100820001C971196ED91FC9112978081892380830A
:10083000089516969C9116971196ED91FC9112973A
:1008400080818923808317969C9117971196ED914B
:10085000FC9112978081892B808319969C9119971E
:100860001196ED91FC9112978081892B80831C96C3
:100870009C911C971196ED91FC9112978081892390
:100880008083089515969C9115971196ED91FC9192
:1008900012978081892B808317969C9117971196C8
:1008A000ED91FC9112978081892B808319969C9100
:1008B00019971196ED91FC9112978081892B808375
:1008C0001C969C911C971196ED91FC91129780813A
:1008D00089238083089516969C9116971196ED9121
:1008E000FC91129780818923808318969C91189798
:1008F0001196ED91FC9112978081892380831A963D
:100900009C911A971196ED91FC9112978081892301
:1009100080831B969C911B971196ED91FC911297E9
:100920008081892B8083089515969C911597119647
:10093000ED91FC9112978081892B808318969C9170
:1009400018971196ED91FC911297808189238083ED
:100950001A969C911A971196ED91FC9112978081AD
:10096000892380831B969C911B971196ED91FC9196
:1009700012978081892B8083089516969C911697F3
:100980001196ED91FC9112978081892380831796AF
:100990009C9117971196ED91FC9112978081892B6C
:1009A00080831A969C911A971196ED91FC9112975B
:1009B0008081892380831B969C911B971196ED91D2
:1009C000FC9112978081892B8083089515969C91C4
:1009D00015971196ED91FC9112978081892B808358
:1009E00017969C9117971196ED91FC911297808123
:1009F000892B80831A969C911A971196ED91FC9100
:100A000012978081892380831B969C911B97119656
:100A1000ED91FC9112978081892B80830895169621
:100A20009C9116971196ED91FC91129780818923E4
:100A3000808318969C9118971196ED91FC911297CE
:100A400080818923808319969C9119971196ED9145
:100A5000FC9112978081892B80831B969C911B9718
:100A60001196ED91FC9112978081892B80830895D6
:100A700015969C9115971196ED91FC911297808196
:100A8000892B808318969C9118971196ED91FC9173
:100A9000129780818923808319969C9119971196CA
:100AA000ED91FC9112978081892B80831B969C91FC
:100AB0001B971196ED91FC9112978081892B808371
:100AC000089516969C9116971196ED91FC911297A8
:100AD00080818923808317969C9117971196ED91B9
:100AE000FC9112978081892B808319969C9119978C
:100AF0001196ED91FC9112978081892B80831B9632
:100B00009C911B971196ED91FC9112978081892BF6
:100B10008083089515969C9115971196ED91FC91FF
:100B200012978081892B808317969C911797119635
:100B3000ED91FC9112978081892B808319969C916D
:100B400019971196ED91FC9112978081892B8083E2
:100B50001B969C911B971196ED91FC9112978081A9
:100B6000892B8083089515969C9115971196ED9188
:100B7000FC9112978081892B808317969C911797FF
:100B80001196ED91FC9112978081892B80831996A3
:100B90009C9119971196ED91FC9112978081892B68
:100BA00080831B969C911B971196ED91FC91129757
:100BB0008081892B808380E18C930895FC0195814D
:100BC000A381B4818C91892B8C939781A381B4816B
:100BD0008C91892B8C939185A381B4818C91892BE5
:100BE0008C939385A381B4818C91892B8C936FE036
:100BF000CF010E9416030895EE0FFF1F0590F49198
:080C0000E02D0994F894FFCFE8
:0A0C080000000000150222022E0277
:02000004008278
:03000000FFDBF42F
:02000004008377
:01000000FF00
:00000001FF
