:100000000C943A000C944C000C944C000C944C0052
:100010000C944C000C944C000C944C000C944C0030
:100020000C944C000C944C000C944C000C944C0020
:100030000C944C000C944C000C944C000C944C0010
:100040000C944C000C944C000C944C000C944C0000
:100050000C944C000C944C000C944C000C944C00F0
:100060000C944C000C944C000C944C000C944C00E0
:100070000C944C0011241FBECFEFD2E0DEBFCDBFE9
:1000800021E0A0E0B1E001C01D92A030B207E1F78D
:100090000E944E000C9466000C9400001BB880EC8B
:1000A0008AB92FEF34E39CE0215030409040E1F7D3
:1000B00000C000008BB92FEF34E38CE021503040BA
:1000C0008040E1F700C000001BB8FFCFF894FFCFDD
:02000004008278
:03000000FFDBF42F
:02000004008377
:01000000FF00
:00000001FF
