:100000000C943A000C944F000C944F000C944F0049
:100010000C944F000C944F000C944F000C944F0024
:100020000C944F000C944F000C944F000C944F0014
:100030000C944F000C944F000C944F000C944F0004
:100040000C944F000C944F000C944F000C944F00F4
:100050000C944F000C944F000C944F000C944F00E4
:100060000C944F000C944F000C944F000C944F00D4
:100070000C944F0011241FBECFEFD2E0DEBFCDBFE6
:1000800011E0A0E0B1E0E0E9F2E002C005900D92DD
:10009000AA30B107D9F70E9451000C9446010C9484
:1000A0000000CF93DF93CDB7DEB7A8970FB6F894D3
:1000B000DEBF0FBECDBF26E048E250E067E270E051
:1000C000CE0101960E94DB0027E048E250E067E2A3
:1000D00070E0CE0140960E94DB00CE0101960E94A6
:1000E000AD0005E028E230E046E250E067E270E073
:1000F000CE014F960E940D01CE0101960E94BA00DA
:1001000018A6CE014F960E943D0188A788A5882396
:1001100079F0CE0140960E94AD008FE19EE40197F8
:10012000F1F700C00000CE0140960E94BA000EC058
:10013000CE0101960E94AD008FE19EE40197F1F798
:1001400000C00000CE0101960E94BA008FE19EE43B
:100150000197F1F700C00000D4CFFC018085811128
:1001600008C09585A185B2858C91892B8C9381E0FF
:1001700080870895FC018085882339F09685A185C4
:10018000B2858C9189238C9310860895DC01189692
:100190002C911897222339F0ED91FC910280F38184
:1001A000E02D09950895DC01ED91FC910190F0811D
:1001B000E02D09950895FC0184E091E0918380830E
:1001C000108652874187748763871586358581E05D
:1001D00090E002C0880F991F2A95E2F7832B85874C
:1001E0008585809586879685DA018C9189238C9305
:1001F00095850384F485E02D8081892B8083089583
:10020000FC011082A581B6819C918781892319F018
:1002100081E080830895108208950F93CF93DF9338
:100220001F92CDB7DEB7FC010983748363835683C5
:1002300045833283218317825981478181E090E091
:1002400002C0880F991F5A95E2F7842B8783878114
:10025000809580879781D9018C91892B8C9390858B
:10026000A381B4818C9189238C93CF010E940001DA
:100270000F90DF91CF910F910895CF93DF93EC0111
:100280000E9400018881DF91CF910895F894FFCFFB
:0A02900000000000AD00BA00C60037
:02000004008278
:03000000FF5BF4AF
:02000004008377
:01000000FF00
:00000001FF
